:020000040800F2
:10000000D0080020D5000008510D0008D5090008CF
:1000100000000000000000000000000000000000E0
:100020000000000000000000000000005B1000085D
:100030000000000000000000591000085D100008DA
:10004000000000000000000000000000E7000008C1
:10005000E7000008E7000008E7000008E7000008E4
:100060000000000000000000000000000000000090
:10007000E7000008E7000008E700000800000000B3
:1000800000000000E700000800000000E700000892
:10009000000000000000000000000000E700000871
:1000A00000000000E700000800000000E700000872
:1000B0000000000000000000000000000000000040
:1000C0000348854600F03CF800480047E910000866
:1000D000D00800200448804704480047FEE7FEE7B8
:1000E000FEE7FEE7FEE7FEE765100008C100000836
:1000F00030B50B46014600202022012409E00D46C0
:10010000D5409D4205D31D469540491B2546954047
:1001100040191546521E002DF1DC30BDD2B201E06F
:100120000270401C491EFBD270470022F6E710B552
:1001300013460A4604461946FFF7F0FF204610BD55
:10014000064C0125064E05E0E36807CC2B430C3C2A
:1001500098471034B442F7D3FFF7B6FF2C1A0008C3
:100160004C1A000870B58C180578401C6B075B0FA3
:1001700001D10378401C2A1106D10278401C03E00B
:1001800006780E70401C491C5B1EF9D12B0705D464
:100190000023521E0DD40B70491CFAE70378401C53
:1001A000CB1A921C03E01D780D70491C5B1C521E7B
:1001B000F9D5A142D8D3002070BD000010B50B487E
:1001C0000B49086010210A4820308172094808490B
:1001D000486001218903064881607821C1600021BF
:1001E0000161416100F06EF910BD00000054004053
:1001F00090040020801A060000B587B000BF2B488D
:10020000406B01210843294948630846406BC007F9
:10021000C00F019000BF00BF00BF0846406B012126
:100220000843224948630846406BC007C00F01904D
:1002300000BF00BF00BF0846406B012108431B49B7
:1002400048630846406BC007C00F019000BF00BF65
:1002500001200390049002200590029002A905203D
:10026000000700F049F82020029002A905200007AD
:1002700000F042F81020029002A90520000700F0CB
:100280003BF8012202210520000700F00FF90122AE
:1002900020210520000700F009F901221021052086
:1002A000000700F003F907B000BD00000010024095
:1002B00008B505494143009100BF00BF00994A1E9F
:1002C00000920029F9D108BDB80B000070B50446B2
:1002D00000F0F2F806462546681C002802D00548C2
:1002E00000682D1800BF00F0E7F8801BA842FAD381
:1002F00070BD00000800002070B503460022CBE06E
:10030000012696400C683440002C71D04D68022DB7
:1003100002D04D68122D15D1D508AE001D462035EE
:10032000A8595507EE0E0F25B5400646AE43304698
:100330005607F60E0D69B5402843D508AD001E4698
:1003400020367051186856000325B5400646AE4366
:1003500030460D79AD07AD0F5600B5402843186003
:100360004D68012D08D04D68022D05D04D68112D26
:1003700002D04D68122D18D1986856000325B5405B
:100380000646AE4330465600CD68B54028439860D7
:100390005868012595400646AE43304610264D6804
:1003A00035402D09954028435860D86856000325EC
:1003B000B5400646AE43304656008D68B5402843EA
:1003C000D860012636074D683540B54263D1354DBA
:1003D0009608B600A8599507EE0E0F25B5400646BB
:1003E000AE43304605252D07AB4202D1002506E07D
:1003F00051E02D4DAB4201D1012500E002259607C9
:10040000F60EB5402843274D9608B600A851254D55
:10041000203528680546A5432846012636044D6840
:100420003540B54202D10546254328461D4D2035AD
:10043000286068680546A5432846012676044D686D
:100440003540B54202D1054625432846154D203595
:100450006860144D603D28680546A543284601267E
:1004600036054D683540B54202D10546254328463C
:100470000C4D603D286068680546A5432846012666
:1004800076054D683540B54202D1054625432846DC
:10049000044D603D6860521C0D68D540002D00D0B1
:1004A0002EE770BD6018024000040050002A01D001
:1004B000816100E081627047014800687047000078
:1004C0000000002070B50446002C01D1012070BD51
:1004D0002920005D002805D1002128200155204653
:1004E00000F084F924212920015520680068400883
:1004F00040002168086000F03DFA054659496068EF
:10050000884206D85848854201D2012007E00020E1
:1005100005E05648854201D2012000E00020012874
:1005200000D1D4E752492846FFF7E2FD064620688D
:100530004068810989013143206841604949606808
:10054000884201D8701C08E0FF212D317143084614
:100550007D21C900FFF7CCFD401C2168096A89098B
:1005600089010843216808623E496068884214D8BE
:1005700062685100681EFFF7BBFD401C0005000DBE
:10058000042801D2042041E062685100681EFFF790
:10059000AFFD401C0005000D38E0A068002807D121
:1005A00062685300D118681EFFF7A2FD401C0AE0E4
:1005B000192362685A431146681EFFF799FD401CD3
:1005C0000121890340180005000D002801D10120F8
:1005D0001CE0A068002809D162685300D118681E89
:1005E000FFF786FD401C0005000D0CE01923626832
:1005F0005A431146681EFFF77BFD401C0005000DA5
:100600000121890340180121C90308432168C969F0
:10061000184A114008432168C8616169206908438C
:1006200021680968C0229143084321680860206856
:100630008068FE218843E16808432168886020685B
:10064000006801210843216808600020E062202141
:10065000292001550020606200212A200155002038
:1006600035E70000A086010080841E0000093D00DF
:1006700040420F000030FFFFFFB583B004460F4635
:100680000E9EFFF719FF05462920005D20287DD129
:100690001923012253492046009500F06BFA0028E7
:1006A00002D0022007B0F0BD00BF2820005D012865
:1006B00001D10220F6E701212820015500BF206862
:1006C00000680840002804D12068006808432168B9
:1006D0000860206800680121C90288432168086019
:1006E00021212920015540212A2001550020E062C6
:1006F0000C98A0610D98E083E08BA0833A482062BB
:100700000096019539462046069B059A00F086F929
:10071000002801D00120C5E736E02A4631462046B0
:1007200000F0D0FA00280BD0E06A042806D1206837
:100730000068012149020843216808600120B1E7EF
:10074000A069007821680861A069401CA061A08BA5
:10075000401EA083E08B401EE08320684069042196
:100760000840800800280FD0A08B00280CD0A0697A
:10077000007821680861A069401CA061A08B401E20
:10078000A083E08B401EE083A08B00E027E00028E0
:10079000C3D12A463146204600F0BAF900280BD0D2
:1007A000E06A042806D12068006801214902084354
:1007B00021680860012075E720680068012149026E
:1007C00008432168086020212920015500212A20A2
:1007D000015500BF2820015500BF002062E702201C
:1007E00060E70000020010000000FFFF10B586B0B7
:1007F0000446142101A8FFF798FC00BF1D48C06BF8
:100800000121490508431B49C8630846C06B012103
:1008100049050840009000BF00BF00BF1548406B6D
:1008200002210843134948630846406B02210840EF
:10083000009000BF00BF18200190122002900120FC
:100840000390032004900620059001A90A48FFF7B1
:1008500053FD0848C06A0121490508430549C8629B
:100860000846C06A0121490588430249C86206B0AA
:1008700010BD000000100240000400500348006852
:1008800003490968401801490860704700000020CA
:100890000800002010B50024032000F009F800280B
:1008A00001D0012401E000F033F8204610BD000023
:1008B000F8B5044600251348006800281ED01148EA
:1008C00001687D20C000FFF713FC074639460E483B
:1008D0000068FFF70DFC064600F060F800280BD119
:1008E000042C07D200222146401E00F033F80748AE
:1008F000046004E0012502E0012500E0012528460E
:10090000F8BD0000080000200C00002004000020BA
:1009100008B500BF0E480068012108430C49086073
:1009200008460068C007C00F009000BF00BF00BFAE
:1009300007484038C06B8905084305494039C863FA
:100940000846C06B09040840009000BF00BF08BD06
:100950004010024070B504460D4616462946204612
:1009600000F0F8F970BD0000014800687047000011
:100970000C00002000B5FFF7F7FF06498968072241
:1009800012031140090B8900034A515CC906C90EC4
:10099000C84000BD00100240D411000870B50446E4
:1009A0002546681E0949884201D901200CE0681ECD
:1009B000074948610321081F00F0CCF900200449D1
:1009C000886107200861002070BD0000FFFFFF0064
:1009D00000E000E000BFFEE7014608684069012230
:1009E00092021040800A002815D0D0430A68506156
:1009F0000020486220222920425400222A2042540A
:100A0000C86A04221043C86200BF00222820425452
:100A100000BF012070470020FCE70000FFB581B057
:100A2000044615460B9F0A9E20680068FF2101318D
:100A30000843216808603346002234492046009765
:100A400000F098F8002802D0012005B0F0BDFE218A
:100A500002980840216808613B4632462B49491CF0
:100A6000204600F0C9F8002801D00120EDE700BFC2
:100A70000020009020684069009020688069009004
:100A800000BF00BF3A463146204600F01BF900285F
:100A90000BD0E06A042806D12068006801214902D1
:100AA0000843216808600120CFE70498012803D19A
:100AB000E8B2216808611BE0FF2000022840001214
:100AC000216808613A463146204600F0FBF80028CC
:100AD0000BD0E06A042806D1206800680121490291
:100AE0000843216808600120AFE7E8B22168086187
:100AF0003B46324605497F31204600F07DF800280C
:100B000001D00120A1E700209FE7000001000100C3
:100B100070B504460D46164623E02046FFF75CFFFD
:100B2000002801D0012070BD681C002819D0FFF7F3
:100B3000C3FC801BA84201D8002D12D100206062A6
:100B400020212920015500212A200155E06A202179
:100B50000843E06200BF00212820015500BF0120AA
:100B6000E1E7206840690421084080080028D4D0CB
:100B70000020D8E7F8B504460D4617461E461DE08E
:100B8000701C00281AD0FFF797FC0699401AB04253
:100B900001D8002E12D100206062202129200155A9
:100BA00000212A200155E06A20210843E06200BFAD
:100BB00000212820015500BF0120F8BD2802000EA9
:100BC00001280AD120684069A9B20840A9B2884228
:100BD00001D101200BE0002009E020688069A9B262
:100BE0000840A9B2884201D1012000E00020B842AB
:100BF000C6D00020E1E70000F8B504460D461646D1
:100C00001F4640E020684069012189020840800AAF
:100C100000281BD02068006849100843216808603C
:100C20002748216848610020606220212920015561
:100C300000212A200155E06A04210843E06200BF38
:100C400000212820015500BF0120F8BD701C00289C
:100C500019D0FFF731FCC01BB04201D8002E12D1D1
:100C60000020606220212920015500212A20015501
:100C7000E06A20210843E06200BF002128200155DE
:100C800000BF0120E1E72802000E01280AD12068F8
:100C90004069A9B20840A9B2884201D101200BE005
:100CA000002009E020688069A9B20840A9B2884202
:100CB00001D1012000E000200028A3D00020C4E7DB
:100CC000FFFBFFFF70B504460D46164623E02046A5
:100CD000FFF782FE002801D0012070BD681C0028AB
:100CE00019D0FFF7E9FB801BA84201D8002D12D1D3
:100CF0000020606220212920015500212A20015571
:100D0000E06A20210843E06200BF0021282001554D
:100D100000BF0120E1E72068406980210840C00948
:100D20000028D4D00020D8E713B584B004467D2035
:100D3000C000012105AA0B460092019102902246B3
:100D400078210248FFF798FC06B010BD90040020FF
:100D50007047000010B5002819DA1A4A03071B0F64
:100D6000083B9B089B00D2588307DC0EFF23A3405F
:100D70009A438B071B0E8407E40EA3401A43114BC2
:100D80000407240F083CA408A4001A5118E00E4AD6
:100D900003231B02D21883089B00D2588307DC0E62
:100DA000FF23A3409A438B071B0E8407E40EA34046
:100DB0001A43054B032424021B198408A4001A516A
:100DC00010BD00001CED00E000E100E010B50020C7
:100DD00000F001F810BD70B50646002415E021466C
:100DE000B031C8B200F062F9002000F05FF91020C5
:100DF00000F05CF9002504E0304600F05EF9681C64
:100E0000C5B2802DF8DB601CC4B2082CE7DB70BDD6
:100E100010B50120FFF75AFAAE2000F047F9202064
:100E200000F044F9102000F041F9B02000F03EF944
:100E3000C82000F03BF9002000F038F9102000F045
:100E400035F9402000F032F9812000F02FF9FF2021
:100E500000F02CF9A12000F029F9A62000F026F9D5
:100E6000A82000F023F93F2000F020F9A42000F092
:100E70001DF9D32000F01AF9002000F017F9D52051
:100E800000F014F9F02000F011F9D92000F00EF96B
:100E9000222000F00BF9DA2000F008F9122000F00F
:100EA00005F9DB2000F002F9202000F0FFF88D208A
:100EB00000F0FCF8142000F0F9F8AF2000F0F6F88C
:100EC00010BD10B58D2000F0F1F8102000F0EEF804
:100ED000AE2000F0EBF810BD10B58D2000F0E6F864
:100EE000142000F0E3F8AF2000F0E0F810BD70B57A
:100EF00004460D462946B031C8B200F0D7F8F021BB
:100F0000214009110846103000F0D0F82107090FE0
:100F100001221143084600F0C9F870BDF7B50E462E
:100F2000174600247D0131460098FFF7E0FF00BF1F
:100F300006E00D49485D00F0C0F86D1C601CC4B2AD
:100F4000102CF6DB701CC1B20098FFF7D0FF002414
:100F500006E00549485D00F0B0F86D1C601CC4B2A5
:100F6000102CF6DBFEBD000010000020FFB581B0A4
:100F7000064617460020009000240025049801280A
:100F800002D0022860D125E020E0785D2038C0B290
:100F900000907E2E04DD00260298401CC0B2029014
:100FA00030460299FFF7A3FF002409E006220099CA
:100FB0005143274A8918085D00F07FF8601CC4B2CD
:100FC000062CF3DBB01DC6B2681CC5B2785D0028E4
:100FD000DBD139E034E0785D2038C0B20090782E63
:100FE00004DD00260298401CC0B2029030460299EF
:100FF000FFF77DFF002408E0009909010919154A4F
:10100000505C00F05AF8601CC4B2082CF4DB029863
:10101000401CC1B23046FFF76AFF002409E0009986
:101020000901091908310B4A505C00F046F8601CB0
:10103000C4B2082CF3DB30460830C6B2681CC5B217
:10104000785D0028C7D100BF00BF05B0F0BD00002B
:10105000141200083C1400087047704710B5FFF7E1
:101060000DFC10BD10B50D484068000C00040C4983
:10107000096808430949486008464068094908402A
:101080000749403189880904084304494860C80376
:10109000054988606420FFF70BF910BD001002407D
:1010A0000001FF1FFFFF00FE00ED00E010B5044649
:1010B00021460020FFF738FE10BD10B5044621463A
:1010C0004020FFF731FE10BD02E008C8121F08C122
:1010D000002AFAD170477047002001E001C1121FB9
:1010E000002AFBD170470000FFF7D4FBFFF784F81C
:1010F000FFF764F8FFF78CFEFF20FFF76CFE38E087
:10110000FF20FFF768FE7D20C000FFF7DFF800201A
:10111000FFF761FE7D20C000FFF7D8F8002408E04B
:1011200021011631C8B222460021FFF7F7FE601CEC
:10113000C4B2042CF4DB7D200001FFF7C7F80123C3
:101140000CA203210020FFF711FF02230DA20421AE
:101150000020FFF70BFF7D20C000FFF7B7F8FFF777
:1011600035FEFFF7AEFE7D20C000FFF7AFF8FFF7BA
:10117000B3FEC5E757696C646669726520546563A0
:101180006800000048656C6C6F2077696C64666964
:101190007265000000000000000000000000000078
:1011A000000000000000000000000000000000003F
:1011B0000000000001000000020000000300000029
:1011C0000400000006000000070000000800000006
:1011D0000900000000000000000000000000000006
:1011E00000000000010000000200000003000000F9
:1011F00004000000000000000000000000000000EB
:101200000000000000366E01000000000000000039
:10121000000000000000000000000000002F00009F
:1012200000000700070000147F147F1400242A7FA9
:101230002A12006264081323003649552250000028
:101240000503000000001C224100000041221C0098
:101250000014083E08140008083E0808000000A01A
:101260006000000808080808000060600000002016
:1012700010080402003E5149453E0000427F4000F4
:10128000004261514946002141454B31001814127A
:101290007F10002745454539003C4A494930000147
:1012A0007109050300364949493600064949291E96
:1012B00000003636000000005636000000081422F8
:1012C00041000014141414140000412214080002F8
:1012D0000151090600324959513E007C1211127C1D
:1012E000007F49494936003E41414122007F41414A
:1012F000221C007F49494941007F09090901003E3C
:101300004149497A007F0808087F0000417F410079
:10131000002040413F01007F08142241007F4040EF
:101320004040007F020C027F007F0408107F003ED7
:101330004141413E007F09090906003E4151215EBD
:10134000007F091929460046494949310001017FBA
:101350000101003F4040403F001F2040201F003F50
:101360004038403F00631408146300070870080702
:1013700000615149454300007F41410000552A5515
:101380002A55000041417F00000402010204004090
:1013900040404040000001020400002054545478B2
:1013A000007F4844443800384444442000384444D2
:1013B000487F00385454541800087E090102001870
:1013C000A4A4A47C007F080404780000447D4000AD
:1013D000004080847D00007F102844000000417F91
:1013E0004000007C04180478007C0804047800386D
:1013F0004444443800FC242424180018242418FCF5
:10140000007C0804040800485454542000043F445D
:101410004020003C4040207C001C2040201C003C20
:101420004030403C004428102844001CA0A0A07C70
:10143000004464544C4414141414141400000000A8
:10144000000000000000000000000000000000F8A4
:1014500000000000000000333000000000100C0607
:10146000100C0600000000000000000040C07840A2
:10147000C0784000043F04043F040400007088FC6E
:1014800008300000001820FF211E0000F008F000C6
:10149000E018000000211C031E211E0000F0088837
:1014A000700000001E2123241927211010160E00A1
:1014B000000000000000000000000000000000E04C
:1014C0001804020000000007182040000002041861
:1014D000E00000000040201807000000404080F0BD
:1014E000804040000202010F01020200000000F0F3
:1014F000000000000101011F0101010000000000C7
:101500000000000080B0700000000000000000003B
:1015100000000000000101010101010100000000C4
:10152000000000000030300000000000000000005B
:1015300080601804006018060100000000E0100838
:101540000810E000000F102020100F00001010F80D
:10155000000000000020203F20200000007008084C
:1015600008887000003028242221300000300888CC
:10157000884830000018202020110E000000C020F4
:1015800010F8000000070424243F240000F8088815
:10159000880808000019212020110E0000E01088A2
:1015A00088180000000F112020110E0000380808D4
:1015B000C83808000000003F0000000000708808E4
:1015C00008887000001C222121221C0000E0100865
:1015D0000810E0000000312222110F00000000C0BE
:1015E000C00000000000003030000000000000805B
:1015F000000000000000806000000000000080404B
:101600002010080000010204081020004040404063
:1016100040404000040404040404040000081020B6
:1016200040800000002010080402010000704808FB
:101630000808F0000000003036010000C030C82863
:10164000E810E0000718272423140B000000C0381E
:10165000E0000000203C23020227382008F8888898
:1016600088700000203F202020110E00C0300808A4
:1016700008083800071820202010080008F808087B
:101680000810E000203F202020100F0008F8888874
:10169000E8081000203F20202320180008F8888840
:1016A000E8081000203F200003000000C0300808B8
:1016B0000838000007182020221E020008F8080041
:1016C0000008F808203F210101213F20000808F808
:1016D000080800000020203F20200000000008082B
:1016E000F8080800C08080807F00000008F888C0EB
:1016F00028180800203F20012638200008F808009C
:1017000000000000203F20202020300008F8F800D2
:10171000F8F80800203F003F003F200008F830C0E4
:101720000008F808203F200007183F00E0100808D4
:101730000810E0000F10202020100F0008F8080803
:101740000808F000203F210101010000E010080816
:101750000810E0000F18242438504F0008F888883B
:1017600088887000203F2000030C3020007088081B
:10177000080838000038202121221C00180808F829
:10178000080818000000203F2000000008F80800AA
:101790000008F808001F202020201F00087888007B
:1017A00000C83808000007380E010000F80800F8EB
:1017B0000008F800033C0700073C03000818688095
:1017C0008068180820302C03032C30200838C8000B
:1017D000C83808000000203F20000000100808085A
:1017E000C83808002038262120201800000000FEFC
:1017F000020202000000007F40404000000C30C0A8
:1018000000000000000000010638C00000020202D3
:10181000FE000000004040407F0000000000040285
:1018200002020400000000000000000000000000B0
:1018300000000000808080808080808000020204A0
:101840000000000000000000000000000000808098
:10185000808000000019242222223F2008F8008006
:1018600080000000003F112020110E0000000080C9
:1018700080800000000E1120202011000000008058
:101880008088F800000E112020103F20000080808A
:1018900080800000001F222222221300008080F09E
:1018A000888888180020203F2020000000008080C9
:1018B00080808000006B94949493600008F800800E
:1018C00080800000203F210000203F200080989869
:1018D000000000000020203F2020000000000080C9
:1018E0009898000000C08080807F000008F8000009
:1018F00080808000203F24022D302000000808F85E
:10190000000000000020203F202000008080808018
:1019100080808000203F20003F20003F80800080AA
:1019200080800000203F210000203F2000008080B8
:1019300080800000001F202020201F008080008069
:101940008000000080FFA12020110E000000008018
:1019500080808000000E112020A0FF808080800009
:101960008080800020203F21200001000000808036
:10197000808080000033242424241900008080E02B
:10198000808000000000001F2020000080800000F8
:1019900000808000001F202020103F2080808000D9
:1019A0000080808000010E300806010080800080E9
:1019B000008080800F300C030C300F00008080000E
:1019C000808080000020312E0E3120008080800039
:1019D0000080808080818E701806010000808080E9
:1019E000808080000021302C222130000000000087
:1019F000807C020200000000003F40400000000028
:101A0000FF00000000000000FF0000000002027C58
:101A1000800000000040403F00000000000601017F
:101A20000202040400000000000000004C1A00083C
:101A3000000000209004000064010008DC1B000886
:101A40009004002040040000D810000841320442F5
:101A50000114366E012CFE9292031117424AD26A8B
:101A600046C0100940C444443F2424244C40807F95
:101A70002533C03822FF34402018100880814020D0
:101A8000100C031008030C1020408080172424A49D
:101A9000FEA3223B22CC242115080601FF2B0104C2
:101AA0000115FF020202180C101010FF1090088898
:101AB0008888FF04120820100444827F018080403F
:101AC000432C1028468180100A03050911FF118953
:101AD00005C312E012F072F8073D4428FF11AA4432
:101AE000700B830138448292927401831E7C44C738
:101AF000017D01990539B3219A0102818A010B0107
:101B00003669419949FA0101A12A4001212A6D0152
:101B1000212A6001791501642ADB010915072ADAF7
:101B200001212AD801212AC0010915072A800101B3
:101B3000352A06010918071CE66620076A86157A09
:101B4000861C2A8601180A80808686068686C0C082
:101B50000C0E1C0606D030764D2907013113601C8F
:101B600012FE1301021009C41820029E63B20E1D5A
:101B7000FF8181FFF24440300F12FF180923EAAAC7
:101B8000BFAAEA033F0B012DBC8080800801152409
:101B90000E0C082A01013149041D8180808102193F
:101BA00001B91706110101090C0E0A14C0012178B0
:101BB000081E21404050215E08012A4DFFFFC1C18F
:101BC0000409232D101680FCF3EFF3FC80FF80EE58
:0C1BD000EEEEF5FBFF9CBEB6B688FF00F1
:04000005080000C12E
:00000001FF
